:020000040800F2
:1000000000000220911B00088118000889180008D0
:100010009118000899180008A118000800000000B5
:10002000000000000000000000000000219900080E
:10003000A918000800000000719B0008B71800080C
:10004000E11B0008E11B0008E11B0008E11B0008A0
:10005000E11B0008E11B0008E11B0008E11B000890
:10006000E11B0008E11B0008E11B0008D118000893
:10007000E11B0008E11B0008E5180008F91800085A
:100080000D190008E11B0008E11B0008E11B000836
:10009000E11B0008E11B0008E11B0008E11B000850
:1000A000E11B0008E11B000821190008E11B000802
:1000B000E11B0008E11B0008E11B0008E11B000830
:1000C000E11B0008E11B0008E11B000841190008C2
:1000D0005519000869190008E11B0008E11B000818
:1000E000E11B0008E11B0008E11B0008E11B000800
:1000F000E11B0008E11B0008E11B0008E11B0008F0
:10010000E11B0008E11B0008E11B00087D19000845
:10011000E11B0008E11B0008E11B0008E11B0008CF
:1001200091190008E11B0008A5190008B919000879
:10013000E11B0008E11B0008E11B0008E11B0008AF
:10014000E11B0008E11B0008E11B0008E11B00089F
:10015000E11B0008E11B0008CD190008E11B0008A5
:10016000E11B0008E11B0008E11B0008E11B00087F
:10017000E11B0008E11B0008E11B00080000000073
:08018000E11B0008E11B00086F
:1001900010B5054C237833B9044B13B10448AFF3C1
:1001A00000800123237010BDB0000020000000007B
:1001B0003418010808B5034B1BB103490348AFF3DA
:1001C000008008BD00000000B400002034180108C1
:1001D00001F0FF01102A2BDB10F0070F08D010F8F8
:1001E000013B013A8B422DD010F0070F42B3F6D1FC
:1001F000F0B441EA012141EA014122F007047FF015
:1002000000070023F0E80256083C85EA010586EA6B
:10021000010685FA47F5A3FA87F586FA47F6A5FAA7
:1002200087F68EB9EED1F0BC01F0FF0102F00702B3
:1002300032B110F8013B013A83EA010313B1F8D15E
:100240000020704701387047002D06BF354603383F
:10025000073815F0010F07D1013015F4807F02BF78
:10026000013015F4C03F0130F0BC0138704700BFC9
:1002700081F0004102E000BF83F0004330B54FEA57
:1002800041044FEA430594EA050F08BF90EA020FC4
:100290001FBF54EA000C55EA020C7FEA645C7FEA57
:1002A000655C00F0E2804FEA5454D4EB5555B8BF7A
:1002B0006D420CDD2C4480EA020281EA030382EAEB
:1002C000000083EA010180EA020281EA0303362D7D
:1002D00088BF30BD11F0004F4FEA01314FF4801C50
:1002E0004CEA113102D0404261EB410113F0004F62
:1002F0004FEA03334CEA133302D0524263EB430319
:1003000094EA050F00F0A780A4F10104D5F1200EB6
:100310000DDB02FA0EFC22FA05F2801841F1000111
:1003200003FA0EF2801843FA05F359410EE0A5F1E5
:1003300020050EF1200E012A03FA0EFC28BF4CF016
:10034000020C43FA05F3C01851EBE37101F00045CC
:1003500007D54FF0000EDCF1000C7EEB00006EEBD9
:100360000101B1F5801F1BD3B1F5001F0CD3490863
:100370005FEA30004FEA3C0C04F101044FEA4452BA
:1003800012F5800F80F09A80BCF1004F08BF5FEA41
:10039000500C50F1000041EB045141EA050130BD21
:1003A0005FEA4C0C404141EB0101013C28BFB1F533
:1003B000801FE9D291F0000F04BF01460020B1FA7E
:1003C00081F308BF2033A3F10B03B3F120020CDA51
:1003D0000C3208DD02F1140CC2F10C0201FA0CF02F
:1003E00021FA02F10CE002F11402D8BFC2F1200C94
:1003F00001FA02F120FA0CFCDCBF41EA0C0190404A
:10040000E41AA2BF01EB0451294330BD6FEA040492
:100410001F3C1CDA0C340EDC04F11404C4F120027D
:1004200020FA04F001FA02F340EA030021FA04F38F
:1004300045EA030130BDC4F10C04C4F1200220FAE6
:1004400002F001FA04F340EA0300294630BD21FA24
:1004500004F0294630BD94F0000F83F4801306BFEA
:1004600081F480110134013D4EE77FEA645C18BFDE
:100470007FEA655C29D094EA050F08BF90EA020F75
:1004800005D054EA000C04BF1946104630BD91EA6D
:10049000030F1EBF0021002030BD5FEA545C05D170
:1004A0004000494128BF41F0004130BD14F58004AF
:1004B0003CBF01F5801130BD01F0004545F0FE4123
:1004C00041F470014FF0000030BD7FEA645C1ABF58
:1004D000194610467FEA655C1CBF0B46024650EA8F
:1004E000013406BF52EA033591EA030F41F40021BB
:1004F00030BD00BF90F0000F04BF0021704730B541
:100500004FF4806404F132044FF000054FF0000115
:1005100050E700BF90F0000F04BF0021704730B5D6
:100520004FF4806404F1320410F0004548BF4042AB
:100530004FF000013EE700BF42004FEAE2014FEA00
:1005400031014FEA02701FBF12F07F4393F07F4FDB
:1005500081F06051704732F07F4208BF704793F0DE
:100560007F4F04BF41F40021704730B54FF46074F1
:1005700001F0004521F000411CE700BF50EA0102F4
:1005800008BF704730B54FF000050AE050EA01029D
:1005900008BF704730B511F0004502D5404261EB0D
:1005A00041014FF4806404F132045FEA915C3FF44E
:1005B000D8AE4FF003025FEADC0C18BF03325FEAEB
:1005C000DC0C18BF033202EBDC02C2F1200300FA9C
:1005D00003FC20FA02F001FA03FE40EA0E0021FAC1
:1005E00002F11444BDE600BF70B54FF0FF0C4CF4AF
:1005F000E06C1CEA11541DBF1CEA135594EA0C0F61
:1006000095EA0C0F00F0DEF82C4481EA030621EA9B
:100610004C5123EA4C5350EA013518BF52EA0335D6
:1006200041F4801143F4801338D0A0FB02CE4FF088
:100630000005E1FB02E506F00042E0FB03E54FF0B8
:100640000006E1FB03569CF0000F18BF4EF0010EB0
:10065000A4F1FF04B6F5007F64F5407404D25FEAAC
:100660004E0E6D4146EB060642EAC62141EA55515F
:100670004FEAC52040EA5E504FEACE2EB4F1FD0CA1
:1006800088BFBCF5E06F1ED8BEF1004F08BF5FEA1F
:10069000500E50F1000041EB045170BD06F00046D1
:1006A00046EA010140EA020081EA0301B4EB5C047E
:1006B000C2BFD4EB0C0541EA045170BD41F4801176
:1006C0004FF0000E013C00F3AB8014F1360FDEBF9B
:1006D000002001F0004170BDC4F10004203C35DA77
:1006E0000C341BDC04F11404C4F1200500FA05F3FA
:1006F00020FA04F001FA05F240EA020001F000429B
:1007000021F0004110EBD37021FA04F642EB060110
:100710005EEA430E08BF20EAD37070BDC4F10C043A
:10072000C4F1200500FA04F320FA05F001FA04F2FE
:1007300040EA020001F0004110EBD37041F10001EA
:100740005EEA430E08BF20EAD37070BDC4F12005F5
:1007500000FA05F24EEA020E20FA04F301FA05F25D
:1007600043EA020321FA04F001F0004121FA04F205
:1007700020EA020000EBD3705EEA430E08BF20EAD5
:10078000D37070BD94F0000F0FD101F0004640000F
:1007900041EB010111F4801F08BF013CF7D041EA91
:1007A000060195F0000F18BF704703F00046520095
:1007B00043EB030313F4801F08BF013DF7D043EA66
:1007C0000603704794EA0C0F0CEA135518BF95EA1C
:1007D0000C0F0CD050EA410618BF52EA4306D1D1A3
:1007E00081EA030101F000414FF0000070BD50EAC2
:1007F000410606BF1046194652EA430619D094EA4C
:100800000C0F02D150EA013613D195EA0C0F05D135
:1008100052EA03361CBF104619460AD181EA030189
:1008200001F0004141F0FE4141F470014FF0000041
:1008300070BD41F0FE4141F4780170BD70B54FF0DC
:10084000FF0C4CF4E06C1CEA11541DBF1CEA13555C
:1008500094EA0C0F95EA0C0F00F0A7F8A4EB05043E
:1008600081EA030E52EA03354FEA013100F0888035
:100870004FEA03334FF0805545EA131343EA1263FE
:100880004FEA022245EA111545EA10654FEA0026B3
:100890000EF000419D4208BF964244F1FD0404F56C
:1008A000407402D25B084FEA3202B61A65EB0305C8
:1008B0005B084FEA32024FF480104FF4002CB6EB85
:1008C000020E75EB030E22BFB61A754640EA0C0005
:1008D0005B084FEA3202B6EB020E75EB030E22BF45
:1008E000B61A754640EA5C005B084FEA3202B6EB86
:1008F000020E75EB030E22BFB61A754640EA9C0045
:100900005B084FEA3202B6EB020E75EB030E22BF14
:10091000B61A754640EADC0055EA060E18D04FEAD2
:10092000051545EA16754FEA06164FEAC30343EA72
:1009300052734FEAC2025FEA1C1CC0D111F4801F3F
:100940000BD141EA00014FF000004FF0004CB6E738
:1009500011F4801F04BF01430020B4F1FD0C88BFD7
:10096000BCF5E06F3FF6AFAEB5EB030C04BFB6EBE2
:10097000020C5FEA500C50F1000041EB045170BDD5
:100980000EF0004E4EEA113114EB5C04C2BFD4EB02
:100990000C0541EA045170BD41F480114FF0000E86
:1009A000013C90E645EA060E8DE60CEA135594EA02
:1009B0000C0F08BF95EA0C0F3FF43BAF94EA0C0F05
:1009C0000AD150EA01347FF434AF95EA0C0F7FF47A
:1009D00025AF104619462CE795EA0C0F06D152EACE
:1009E00003353FF4FDAE1046194622E750EA4106B2
:1009F00018BF52EA43067FF4C5AE50EA41047FF4C3
:100A00000DAF52EA43057FF4EBAE12E74A0011D274
:100A100012F5001211D20DD56FF47873B3EB625258
:100A20000ED44FEAC12343F0004343EA505323FA64
:100A300002F070474FF00000704750EA013002D1D9
:100A40004FF0FF3070474FF0000070474FEA41020F
:100A5000B2F1E04324BFB3F5001CDCF1FE5C0DD91C
:100A600001F0004C4FEAC0024CEA5070B2F1004F66
:100A700040EB830008BF20F00100704711F0804F69
:100A800021D113F13872BCBF01F00040704741F42E
:100A900080114FEA5252C2F11802C2F1200C10FA32
:100AA0000CF320FA02F018BF40F001004FEAC12316
:100AB0004FEAD32303FA0CFC40EA0C0023FA02F3BA
:100AC0004FEA4303CCE77FEA625307D150EA013390
:100AD0001EBF4FF0FE4040F44000704701F0004060
:100AE00040F0FE4040F40000704700BF53B94AB9DF
:100AF000002908BF00281CBF4FF0FF314FF0FF3026
:100B000000F06AB9ADF1080C6DE904CE00F006F80A
:100B1000DDF804E0DDE9022304B070472DE9F04779
:100B2000089D0C46002B4ED194468C458646B2FA61
:100B300082F262D94AB1C2F12003914020FA03F354
:100B40000CFA02FC194300FA02FE4FEA1C471FFA96
:100B50008CF6B1FBF7F44FEA1E4307FB141143EA8E
:100B6000014304FB06F199420AD91CEB030304F18B
:100B7000FF3080F01281994240F20F81023C6344C1
:100B8000591A1FFA8EF3B1FBF7F007FB101143EA75
:100B9000014300FB06F69E420AD91CEB030300F159
:100BA000FF3180F0FC809E4240F2F98063440238BD
:100BB0009B1B40EA044000211DB1D3400022C5E93F
:100BC0000032BDE8F0878B4205D90DB1C5E90001BF
:100BD00000210846F5E7B3FA83F1002946D1A34284
:100BE00002D39042C0F0F080861A64EB0303012028
:100BF000002DE6D0C5E90063E3E7002A40F09080CD
:100C0000A1EB0C044FEA1C481FFA8CF70121B4FB3E
:100C1000F8F64FEA1E4308FB164443EA044307FB79
:100C200006F0984208D91CEB030306F1FF3402D208
:100C3000984200F2CD8026461C1A1FFA8EF3B4FBB0
:100C4000F8F008FB104443EA044300FB07F79F4217
:100C500008D91CEB030300F1FF3402D29F4200F2DB
:100C6000B0802046DB1B40EA0640A5E7C1F1200624
:100C70008B4022FA06F71F4320FA06FC04FA01F320
:100C800043EA0C03F44000FA01F8380C4FEA134928
:100C9000B4FBF0FE1FFA87FC00FB1E4449EA044443
:100CA0000EFB0CF9A14502FA01F20AD93C190EF12A
:100CB000FF3A80F08480A14540F28180AEF1020EBF
:100CC0003C44A4EB09041FFA83F9B4FBF0F300FBE6
:100CD000134449EA044403FB0CFCA44507D93C191E
:100CE00003F1FF3067D2A44565D9023B3C4443EA97
:100CF0000E40A0FB0293A4EB0C049C42CE469C4603
:100D000051D34ED055B1B8EB0E0364EB0C0404FA8A
:100D100006F6CB401E43CC40C5E90064002150E7F5
:100D2000C2F1200320FA03F10CFA02FC24FA03F3C7
:100D300094400C434FEA1C4800FA02FE1FFA8CF75D
:100D4000B3FBF8F008FB1031230C43EA014300FB2E
:100D500007F1994208D91CEB030300F1FF362CD2AE
:100D600099422AD9023863445B1AA4B2B3FBF8F162
:100D700008FB113344EA034401FB07F3A34208D9FB
:100D80001CEB040401F1FF3613D2A34211D902393E
:100D90006444E41A41EA004139E70446F0E60846B3
:100DA00006E7C845AED2B9EB020E63EB070C01387B
:100DB000A8E73146EDE7034699E73046D4E7D64643
:100DC0007FE7634402384DE70646234608460FE7AF
:100DD000023E634430E700BF704700BF80B500AFFC
:100DE00000F000FF00F016F800F0C6F900F05EF920
:100DF00000F06EF800F0A2F800F0D6F800F02CF940
:100E000000F008F90DF0F8FB0DF0F4FC0023184693
:100E100080BD000080B594B000AF07F12003302200
:100E2000002118460FF013FF07F10C0300221A608F
:100E30005A609A60DA601A610023BB60224B1B6C17
:100E4000214A43F0805313641F4B1B6C03F0805303
:100E5000BB60BB6800237B601C4B1B681B4A43F4D0
:100E600080431360194B1B6803F480437B607B68ED
:100E700002233B620123FB6210233B630023BB631D
:100E800007F12003184602F0FFF80346002B01D0BB
:100E900000F0EAF90F23FB6000233B6100237B6134
:100EA0000023BB610023FB6107F10C0300211846FE
:100EB00002F062FB0346002B01D000F0D5F900BF21
:100EC0005037BD4680BD00BF003802400070004072
:100ED00080B500AF174B184A1A60164B4FF4827258
:100EE0005A60144B00229A60124B0022DA60114BB8
:100EF00000221A610F4B00225A610E4B4FF4007210
:100F00009A610C4B0822DA610A4B00221A62094BE3
:100F100000225A62074B00229A62064B0A22DA62CA
:100F2000044802F009FD0346002B01D000F09CF9B3
:100F300000BF80BDD00000200030014080B500AF70
:100F4000174B184A1A60164B4FF482725A60144BB2
:100F500000229A60124B0022DA60114B00221A61C3
:100F60000F4B00225A610E4B4FF400729A610C4BEA
:100F70000822DA610A4B00221A62094B00225A62E7
:100F8000074B00229A62064B0A22DA62044802F0FA
:100F9000D3FC0346002B01D000F066F900BF80BDF2
:100FA000280100200038004080B500AF174B184AD8
:100FB0001A60164B4FF482725A60144B00229A60EA
:100FC000124B0022DA60114B00221A610F4B0022F3
:100FD0005A610E4B4FF400729A610C4B1022DA6189
:100FE0000A4B00221A62094B00225A62074B002268
:100FF0009A62064B0A22DA62044802F09DFC03461C
:10100000002B01D000F030F900BF80BD800100202E
:10101000003C004080B500AF0D4B0E4A1A600C4BEF
:1010200010225A600A4B00229A60094B6322DA6050
:10103000074B00221A61064B00229A61044803F014
:1010400047FF0346002B01D000F00EF900BF80BD22
:10105000180400200048014080B500AF114B124A2F
:101060001A60104B4FF416425A600E4B00229A60E1
:101070000C4B0022DA600B4B00221A61094B0C2248
:101080005A61084B00229A61064B0022DA6105483A
:1010900004F0C0F90346002B01D000F0E5F800BFD2
:1010A00080BD00BF600400200010014080B582B008
:1010B00000AF00237B602F4B1B6B2E4A43F4800351
:1010C00013632C4B1B6B03F480037B607B68002352
:1010D0003B60284B1B6B274A43F400131363254BDB
:1010E0001B6B03F400133B603B68002205210B20BF
:1010F00000F0FFFE0B2000F018FF002205210E205B
:1011000000F0F7FE0E2000F010FF002205210F2056
:1011100000F0EFFE0F2000F008FF00220521102054
:1011200000F0E7FE102000F000FF0022052138202B
:1011300000F0DFFE382000F0F8FE002205213A2002
:1011400000F0D7FE3A2000F0F0FE002205213B20FF
:1011500000F0CFFE3B2000F0E8FE002205214620F3
:1011600000F0C7FE462000F0E0FE00BF0837BD4695
:1011700080BD00BF0038024080B58AB000AF07F1E3
:10118000140300221A605A609A60DA601A61002320
:101190003B61324B1B6B314A43F0800313632F4B8F
:1011A0001B6B03F080033B613B690023FB602B4B0F
:1011B0001B6B2A4A43F001031363284B1B6B03F09C
:1011C0000103FB60FB680023BB60244B1B6B234ABD
:1011D00043F002031363214B1B6B03F00203BB605C
:1011E000BB6800237B601D4B1B6B1C4A43F0040350
:1011F00013631A4B1B6B03F004037B607B680022B4
:1012000048F21001164801F025FF002241F20301C7
:10121000144801F01FFF48F210037B610123BB61FA
:101220000023FB6100233B6207F1140319460C48BD
:1012300001F074FD41F203037B610123BB610023D4
:10124000FB6100233B6207F114031946054801F0D6
:1012500065FD00BF2837BD4680BD00BF0038024095
:10126000000002400004024080B400AF72B600BF2C
:1012700000BFFDE780B582B000AF00237B60124B5A
:101280005B6C114A43F4804353640F4B5B6C03F473
:1012900080437B607B6800233B600B4B1B6C0A4ADE
:1012A00043F080531364084B1B6C03F080533B6086
:1012B0003B6800220F216FF0010000F01AFE00BF12
:1012C0000837BD4680BD00BF0038024080B58EB0F3
:1012D00000AF786007F1240300221A605A609A6018
:1012E000DA601A617B681B68954A934240F09180EE
:1012F00000233B62934B5B6C924A43F480535364EC
:10130000904B5B6C03F480533B623B6A0023FB61B0
:101310008C4B1B6B8B4A43F001031363894B1B6B94
:1013200003F00103FB61FB69E0237B620223BB62E4
:101330000023FB6203233B6305237B6307F1240344
:101340001946814801F0EAFC804B814A1A607F4BC4
:101350004FF0C0625A607D4B00229A607B4B0022A6
:10136000DA607A4B4FF480621A61784B00225A613E
:10137000764B00229A61754B0022DA61734B002292
:101380001A62724B00225A62704800F0EDFD03466B
:10139000002B01D0FFF768FF7B686C4ADA646B4A68
:1013A0007B6893636B4B6C4A1A606A4B4FF0C06268
:1013B0005A60684B40229A60664B0022DA60654BA7
:1013C0004FF480621A61634B00225A61614B002224
:1013D0009A61604B0022DA615E4B00221A625D4B1B
:1013E00000225A625B4800F0BFFD0346002B01D08B
:1013F000FFF73AFF7B68574A9A64564A7B689363C3
:1014000000220521232000F074FD232000F08DFD33
:1014100045E17B681B68514A934240F0AB80002352
:10142000BB61484B1B6C474A43F480431364454BF4
:101430001B6C03F48043BB61BB6900237B61414BA0
:101440001B6B404A43F0020313633E4B1B6B03F0DC
:1014500002037B617B694FF460437B620223BB62C2
:101460000023FB6203233B6305237B6307F1240313
:1014700019463B4801F052FC3A4B3B4A1A60394B43
:1014800000225A60374B00229A60364B0022DA6005
:10149000344B4FF480621A61324B00225A61314B57
:1014A00000229A612F4B0022DA612E4B00221A6231
:1014B0002C4B00225A622B4800F056FD0346002BAD
:1014C00001D0FFF7D1FE7B68264ADA64254A7B68A3
:1014D0009363264B264A1A60244B00225A60234B02
:1014E00040229A60214B0022DA60204B4FF4806248
:1014F0001A611E4B00225A611C4B00229A611B4B41
:101500000022DA61194B00221A62184B00225A623B
:10151000164800F029FD0346002B01D0FFF7A4FE7A
:101520007B68124A9A64114A7B6893630022052102
:10153000242000F0DEFC242000F0F7FCAFE000BF28
:10154000003001400038024000000240D801002075
:101550001064024038020020586402400038004005
:10156000000402409802002058600240F802002067
:10157000706002407B681B684B4A934240F08F804A
:1015800000233B61494B1B6C484A43F400431364FE
:10159000464B1B6C03F400433B613B690023FB603B
:1015A000424B1B6B414A43F0040313633F4B1B6BDD
:1015B00003F00403FB60FB684FF4E0537B620223FB
:1015C000BB620023FB6203233B6306237B6307F1BB
:1015D00024031946364801F0A1FB364B364A1A60FF
:1015E000344B00225A60334B00229A60314B002268
:1015F000DA60304B4FF480621A612E4B00225A6140
:101600002C4B00229A612B4B0022DA61294B0022DD
:101610001A62284B00225A62264800F0A5FC0346B5
:10162000002B01D0FFF720FE7B68224ADA64214AB2
:101630007B689363214B224A1A60204B00225A6038
:101640001E4B40229A601D4B0022DA601B4B4FF468
:1016500080621A61194B00225A61184B00229A616C
:10166000164B0022DA61154B00221A62134B00223E
:101670005A62124800F078FC0346002B01D0FFF7B5
:10168000F3FD7B680D4A9A640C4A7B6893630022E1
:101690000521332000F02DFC332000F046FC00BF74
:1016A0003837BD4680BD00BF003C004000380240D6
:1016B000000802405803002010600240B8030020D8
:1016C0008860024080B584B000AF78607B681B689A
:1016D0000E4A934215D10023FB600D4B5B6C0C4A04
:1016E00043F4802353640A4B5B6C03F48023FB6058
:1016F000FB68002205211A2000F0FBFB1A2000F0F5
:1017000014FC00BF1037BD4680BD00BF004801403B
:101710000038024080B58AB000AF786007F114034A
:1017200000221A605A609A60DA601A617B681B684E
:101730004C4A934240F0918000233B614A4B5B6CE2
:10174000494A43F010035364474B5B6C03F01003AA
:101750003B613B690023FB60434B1B6B424A43F0F8
:1017600001031363404B1B6B03F00103FB60FB6839
:101770004FF4C0637B610223BB610023FB61032341
:101780003B6207237B6207F114031946374801F0D7
:10179000C5FA374B374A1A60354B4FF000625A6032
:1017A000334B00229A60324B0022DA60304B4FF408
:1017B00080621A612E4B00225A612D4B00229A61E1
:1017C0002B4B0022DA612A4B00221A62284B00229E
:1017D0005A62274800F0C8FB0346002B01D0FFF7F0
:1017E00043FD7B68224ADA63214A7B689363224B7C
:1017F000224A1A60204B4FF000625A601E4B402272
:101800009A601D4B0022DA601B4B4FF480621A6114
:10181000194B00225A61184B00229A61164B002284
:10182000DA61154B00221A62134B00225A621248E9
:1018300000F09AFB0346002B01D0FFF715FD7B68F3
:101840000D4A9A630C4A7B68936300220521252088
:1018500000F04FFB252000F068FB00BF2837BD4695
:1018600080BD00BF0010014000380240000002406F
:10187000A80400204064024008050020B86402402B
:1018800080B400AF00BFFDE780B400AF00BFFDE74C
:1018900080B400AF00BFFDE780B400AF00BFFDE73C
:1018A00080B400AF00BFFDE780B400AF00BFBD460D
:1018B0005DF8047B704780B500AF00F0E5F907F0F4
:1018C00091FA0346012B01D008F086F900BF80BDD4
:1018D00080B500AF024800F0DFFC00BF80BD00BF54
:1018E0005803002080B500AF024800F0D5FC00BFCF
:1018F00080BD00BF9802002080B500AF024800F014
:10190000CBFC00BF80BD00BFF802002080B500AF57
:10191000024800F0C1FC00BF80BD00BFB80300203A
:1019200080B500AF044B1B680133034A13600348C2
:1019300003F08EFB00BF80BDCC0000201804002007
:1019400080B500AF024802F0F9FE00BF80BD00BFC5
:10195000D000002080B500AF024802F0EFFE00BFCB
:1019600080BD00BF2801002080B500AF024803F011
:1019700051FE00BF80BD00BF6004002080B500AFF5
:10198000024802F0DBFE00BF80BD00BF80010020E6
:1019900080B500AF024800F07FFC00BF80BD00BFF3
:1019A000D801002080B500AF024800F075FC00BFF0
:1019B00080BD00BFA804002080B500AF024800F041
:1019C0006BFC00BF80BD00BF3802002080B500AFB7
:1019D000024800F061FC00BF80BD00BF0805002088
:1019E00080B400AF01231846BD465DF8047B704704
:1019F00080B582B000AF786039600FF087F9034698
:101A000016221A604FF0FF3318460837BD4680BDD6
:101A100080B582B000AF78604FF0FF317868FFF793
:101A2000E7FF00BFFDE780B586B000AFF860B960A2
:101A30007A6000237B610AE0AFF300800146BB6857
:101A40005A1CBA60CAB21A707B6901337B617A6929
:101A50007B689A42F0DB7B6818461837BD4680BD2C
:101A600080B586B000AFF860B9607A6000237B6112
:101A700009E0BB685A1CBA601B781846AFF30080B7
:101A80007B6901337B617A697B689A42F1DB7B6811
:101A900018461837BD4680BD80B483B000AF78606B
:101AA0004FF0FF3318460C37BD465DF8047B704796
:101AB00080B483B000AF786039603B684FF4005267
:101AC0005A60002318460C37BD465DF8047B70470A
:101AD00080B483B000AF7860012318460C37BD4650
:101AE0005DF8047B704780B485B000AFF860B960E2
:101AF0007A60002318461437BD465DF8047B7047B2
:101B000080B586B000AF7860144A154BD31A7B615C
:101B10007B693B61134B1B68002B02D1114B124AAE
:101B20001A60104B1A687B6813443A699A4207D2CC
:101B30000FF0ECF803460C221A604FF0FF3309E077
:101B4000084B1B68FB60074B1A687B681344054A07
:101B50001360FB6818461837BD4680BD00000220A0
:101B600000040000680500200895002080B400AF44
:101B7000064BD3F88830054A43F47003C2F8883026
:101B800000BFBD465DF8047B704700BF00ED00E07C
:101B9000DFF834D0FFF7EAFF0C480D490D4A002367
:101BA00002E0D458C4500433C4188C42F9D30A4A12
:101BB0000A4C002301E013600432A242FBD30FF071
:101BC000ABF8FFF70BF9704700000220000000207F
:101BD000AC0000200C1B0108B00000200495002080
:101BE000FEE7000080B500AF0E4B1B680D4A43F4C2
:101BF000007313600B4B1B680A4A43F48063136045
:101C0000084B1B68074A43F480731360032000F0FD
:101C100065F90F2000F008F8FFF72CFB00231846A9
:101C200080BD00BF003C024080B582B000AF78604C
:101C3000124B1A68124B1B7819464FF47A73B3FB98
:101C4000F1F3B2FBF3F3184600F081F90346002BE1
:101C500001D001230EE07B680F2B0AD8002279689F
:101C60004FF0FF3000F045F9064A7B68136000230F
:101C700000E0012318460837BD4680BD0000002063
:101C8000080000200400002080B400AF064B1B7841
:101C90001A46064B1B681344044A136000BFBD4636
:101CA0005DF8047B704700BF080000206C05002031
:101CB00080B400AF034B1B681846BD465DF8047B3B
:101CC000704700BF6C05002080B584B000AF78601D
:101CD000FFF7EEFFB8607B68FB60FB68B3F1FF3F86
:101CE00005D00A4B1B781A46FB681344FB6000BF03
:101CF000FFF7DEFF0246BB68D31AFA689A42F7D8AC
:101D000000BF00BF1037BD4680BD00BF08000020E7
:101D100080B485B000AF78607B6803F00703FB6098
:101D20000C4BDB68BB60BA684FF6FF031340BB6027
:101D3000FB681A02BB68134343F0BF6343F40033EC
:101D4000BB60044ABB68D36000BF1437BD465DF872
:101D5000047B704700ED00E080B400AF044BDB680B
:101D60001B0A03F007031846BD465DF8047B704765
:101D700000ED00E080B483B000AF0346FB7197F93B
:101D80000730002B0BDBFB7903F01F02074997F9A3
:101D900007305B09012000FA02F241F8232000BF5E
:101DA0000C37BD465DF8047B704700BF00E100E0E2
:101DB00080B483B000AF03463960FB7197F90730F8
:101DC000002B0ADB3B68DAB20C4997F907301201A5
:101DD000D2B20B4483F800230AE03B68DAB2084928
:101DE000FB7903F00F03043B1201D2B20B441A76C5
:101DF00000BF0C37BD465DF8047B704700E100E092
:101E000000ED00E080B489B000AFF860B9607A609E
:101E1000FB6803F00703FB61FB69C3F10703042BB5
:101E200028BF0423BB61FB690433062B02D9FB697D
:101E3000033B00E000237B614FF0FF32BB6902FAF5
:101E400003F3DA43BB681A407B699A404FF0FF31D5
:101E50007B6901FA03F3D9437B680B4013431846AF
:101E60002437BD465DF8047B7047000080B400AFA6
:101E7000BFF34F8F00BF064BDB6803F4E0620449F9
:101E8000044B1343CB60BFF34F8F00BF00BFFDE790
:101E900000ED00E00400FA0580B582B000AF786084
:101EA0007B68013BB3F1807F01D301230FE00A4A35
:101EB0007B68013B53600F214FF0FF30FFF778FF45
:101EC000054B00229A60044B07221A600023184633
:101ED0000837BD4680BD00BF10E000E080B582B08D
:101EE00000AF78607868FFF713FF00BF0837BD4682
:101EF00080BD80B586B000AF0346B9607A60FB73E1
:101F000000237B61FFF728FF78617A68B9687869F8
:101F1000FFF778FF024697F90F3011461846FFF792
:101F200047FF00BF1837BD4680BD80B582B000AF07
:101F30000346FB7197F907301846FFF71BFF00BFF8
:101F40000837BD4680BD80B500AFFFF78FFF80B575
:101F500082B000AF78607868FFF79EFF03461846AE
:101F60000837BD4680BD000080B586B000AF786000
:101F700000237B61FFF79CFE38617B68002B01D159
:101F8000012399E07B68022283F835207B680022D8
:101F900083F834207B681B681A687B681B6822F012
:101FA00001021A600FE0FFF783FE02463B69D31A75
:101FB000052B08D97B6820225A657B68032283F8A9
:101FC0003520032378E07B681B681B6803F001035E
:101FD000002BE8D17B681B681B687B617A69384BF2
:101FE00013407B617B685A687B689B681A437B68F7
:101FF000DB681A437B681B691A437B685B691A4379
:102000007B689B691A437B68DB691A437B681B6AA0
:1020100013437A6913437B617B685B6A042B07D1A6
:102020007B68DA6A7B681B6B13437A6913437B61B5
:102030007B681B687A691A607B681B685B697B61D7
:102040007B6923F007037B617B685B6A7A691343D2
:102050007B617B685B6A042B17D17B689B6A7A691A
:1020600013437B617B68DB6A002B0ED0786800F03D
:1020700001FB0346002B08D07B6840225A657B6831
:10208000012283F83520012316E07B681B687A69FA
:102090005A61786800F0B8FA0346FB607B68DB6D34
:1020A0003F229A40FB689A607B6800225A657B68F1
:1020B000012283F83520002318461837BD4680BD1D
:1020C0003F8010F080B586B000AFF860B9607A60EC
:1020D0003B600023FB75FB689B6D3B61FB6893F8DD
:1020E0003430012B01D1022340E0FB68012283F848
:1020F0003420FB6893F83530DBB2012B2FD1FB681D
:10210000022283F83520FB6800225A653B687A6812
:10211000B968F86800F04AFAFB68DB6D3F229A4024
:102120003B699A60FB681B681A68FB681B6842F091
:1021300016021A60FB681B6C002B07D0FB681B683B
:102140001A68FB681B6842F008021A60FB681B688B
:102150001A68FB681B6842F001021A6005E0FB6820
:10216000002283F834200223FB75FB7D18461837C4
:10217000BD4680BD80B584B000AF78607B689B6D44
:10218000FB60FFF795FDB8607B6893F83530DBB2F4
:10219000022B08D07B6880225A657B68002283F876
:1021A0003420012352E07B681B681A687B681B6837
:1021B00022F016021A607B681B685A697B681B68EC
:1021C00022F080025A617B681B6C002B03D17B6874
:1021D0009B6C002B07D07B681B681A687B681B68A8
:1021E00022F008021A607B681B681A687B681B680B
:1021F00022F001021A6013E0FFF75AFD0246BB68A5
:10220000D31A052B0CD97B6820225A657B680322E0
:1022100083F835207B68002283F83420032315E0FF
:102220007B681B681B6803F00103002BE4D17B680B
:10223000DB6D3F229A40FB689A607B68012283F83D
:1022400035207B68002283F834200023184610379D
:10225000BD4680BD80B483B000AF78607B6893F8E2
:102260003530DBB2022B04D07B6880225A65012313
:102270000CE07B68052283F835207B681B681A68B0
:102280007B681B6822F001021A60002318460C3795
:10229000BD465DF8047B704780B586B000AF7860BE
:1022A0000023BB608E4B1B688E4AA2FB03239B0A54
:1022B0007B617B689B6D3B613B691B68FB607B6856
:1022C000DB6D08229A40FB681340002B1AD07B6814
:1022D0001B681B6803F00403002B13D07B681B688A
:1022E0001A687B681B6822F004021A607B68DB6D49
:1022F00008229A403B699A607B685B6D43F001025B
:102300007B685A657B68DB6D01229A40FB6813404D
:10231000002B12D07B681B685B6903F08003002BE5
:102320000BD07B68DB6D01229A403B699A607B6829
:102330005B6D43F002027B685A657B68DB6D0422AB
:102340009A40FB681340002B12D07B681B681B6807
:1023500003F00203002B0BD07B68DB6D04229A4054
:102360003B699A607B685B6D43F004027B685A6549
:102370007B68DB6D10229A40FB681340002B43D032
:102380007B681B681B6803F00803002B3CD07B684C
:10239000DB6D10229A403B699A607B681B681B6862
:1023A00003F48023002B18D07B681B681B6803F4A0
:1023B0000023002B08D17B681B6C002B24D07B688A
:1023C0001B6C786898471FE07B689B6C002B1BD0C8
:1023D0007B689B6C7868984716E07B681B681B6875
:1023E00003F48073002B07D17B681B681A687B6835
:1023F0001B6822F008021A607B681B6C002B03D05C
:102400007B681B6C786898477B68DB6D20229A405C
:10241000FB681340002B00F08F807B681B681B68F3
:1024200003F01003002B00F087807B68DB6D202217
:102430009A403B699A607B6893F83530DBB2052B94
:1024400036D17B681B681A687B681B6822F016020D
:102450001A607B681B685A697B681B6822F08002DF
:102460005A617B681B6C002B03D17B689B6C002B33
:1024700007D07B681B681A687B681B6822F008021B
:102480001A607B68DB6D3F229A403B699A607B68EB
:10249000012283F835207B68002283F834207B6892
:1024A0001B6D002B7ED07B681B6D7868984779E0A8
:1024B0007B681B681B6803F48023002B1DD07B689E
:1024C0001B681B6803F40023002B0DD17B685B6C39
:1024D000002B31D07B685B6C786898472CE000BF9C
:1024E00000000020B5814E1B7B68DB6B002B23D0E6
:1024F0007B68DB6B786898471EE07B681B681B680D
:1025000003F48073002B0FD17B681B681A687B680B
:102510001B6822F010021A607B68012283F83520C4
:102520007B68002283F834207B68DB6B002B03D0B0
:102530007B68DB6B786898477B685B6D002B32D0DB
:102540007B685B6D03F00103002B22D07B680522C2
:1025500083F835207B681B681A687B681B6822F04B
:1025600001021A60BB680133BB607A699A4207D3E3
:102570007B681B681B6803F00103002BF2D100E0AD
:1025800000BF7B68012283F835207B68002283F836
:1025900034207B68DB6C002B05D07B68DB6C7868B3
:1025A000984700E000BF1837BD4680BD80B485B0B5
:1025B00000AFF860B9607A603B60FB681B681A681E
:1025C000FB681B6822F480221A60FB681B683A686B
:1025D0005A60FB689B68402B08D1FB681B687A68CF
:1025E0009A60FB681B68BA68DA6007E0FB681B68E2
:1025F000BA689A60FB681B687A68DA6000BF1437B3
:10260000BD465DF8047B704780B485B000AF78604C
:102610007B681B68DBB2103B144AA2FB03231B0937
:10262000FB60134AFB6813441B781A467B68DA6523
:10263000FB68032B09D97B681B6823F47F7323F0A5
:1026400003031A1D7B689A6507E07B681B6823F407
:102650007F7323F003037A6893657B689B6D18464C
:102660001437BD465DF8047B704700BFABAAAAAA29
:102670001C19010880B485B000AF78600023FB739B
:102680007B689B6ABB607B689B69002B1FD1BB6822
:10269000032B56D801A252F823F000BFAD26000844
:1026A000BF260008AD260008432700087B68DB6AC8
:1026B00003F08073002B46D00123FB7343E07B685B
:1026C000DB6AB3F1C07F40D10123FB733DE07B683F
:1026D0009B69B3F5005F21D1BB68032B37D801A2FA
:1026E00052F823F0F5260008FB260008F52600081E
:1026F0000D2700080123FB7330E07B68DB6A03F0E1
:102700008073002B25D00123FB7322E07B68DB6AFA
:10271000B3F1C07F1FD10123FB731CE0BB68022B08
:1027200003D9BB68032B03D018E00123FB7315E02A
:102730007B68DB6A03F08073002B0ED00123FB73F0
:102740000BE000BF0AE000BF08E000BF06E000BFEA
:1027500004E000BF02E000BF00E000BFFB7B1846C2
:102760001437BD465DF8047B704700BF80B586B066
:1027700000AFF860B960C7E900230123FB75234B64
:102780001B7E012B01D102233BE0204B01221A7654
:102790004CF2503000F070F80346FB75FB7D002BC7
:1027A0002BD1FB68002B05D13B781946B86800F0A7
:1027B0001BF916E0FB68012B05D13B881946B86868
:1027C00000F0EEF80DE0FB68022B05D13B681946DE
:1027D000B86800F0C3F804E0D7E90023B86800F057
:1027E0008BF84CF2503000F047F80346FB75084B6D
:1027F0001B69074A23F001031361044B00221A7678
:10280000FB7D18461837BD4680BD00BF700500200F
:10281000003C024080B483B000AF0023FB710B4B3F
:102820001B69002B0BDA094B094A5A60074B094A0E
:102830005A60064B1B69002B01DA0123FB71FB79FF
:1028400018460C37BD465DF8047B7047003C0240DB
:1028500023016745AB89EFCD80B400AF054B1B6901
:10286000044A43F00043136100231846BD465DF857
:10287000047B7047003C024080B584B000AF7860B4
:102880000023FB601A4B0022DA61FFF711FAF860AF
:1028900010E07B68B3F1FF3F0CD07B68002B07D0C2
:1028A000FFF706FA0246FB68D31A7A689A4201D209
:1028B000032319E00F4BDB6803F48033002BE8D1CE
:1028C0000C4BDB6803F00103002B02D0094B012203
:1028D000DA60084BDB6803F0F203002B03D000F052
:1028E000A5F8012300E0002318461037BD4680BD3F
:1028F00070050020003C024080B485B000AFF86055
:10290000C7E90023144B1B69134A23F44073136176
:10291000114B1B69104A43F4407313610E4B1B6942
:102920000D4A43F001031361FB683A681A60BFF374
:102930006F8F00BFD7E900014FF000024FF0000396
:102940000A000023F968043113460B6000BF1437F6
:10295000BD465DF8047B7047003C024080B483B004
:1029600000AF786039600D4B1B690C4A23F440734B
:1029700013610A4B1B69094A43F400731361074B47
:102980001B69064A43F0010313617B683A681A60C9
:1029900000BF0C37BD465DF8047B7047003C024029
:1029A00080B483B000AF78600B467B800D4B1B6911
:1029B0000C4A23F4407313610A4B1B69094A43F420
:1029C00080731361074B1B69064A43F001031361CF
:1029D0007B687A881A8000BF0C37BD465DF8047B9F
:1029E000704700BF003C024080B483B000AF786005
:1029F0000B46FB700C4B1B690B4A23F440731361AD
:102A0000094B094A1B691361074B1B69064A43F0CE
:102A1000010313617B68FA781A7000BF0C37BD465A
:102A20005DF8047B704700BF003C024080B400AFFB
:102A3000274BDB6803F01003002B08D0254BDB6924
:102A400043F01003234AD361214B1022DA60204B5C
:102A5000DB6803F02003002B08D01E4BDB6943F03A
:102A600008031C4AD3611A4B2022DA60184BDB683A
:102A700003F04003002B08D0164BDB6943F004033E
:102A8000144AD361124B4022DA60114BDB6803F029
:102A90008003002B08D00F4BDB6943F002030D4A83
:102AA000D3610B4B8022DA60094BDB6803F0020331
:102AB000002B08D0074BDB6943F02003054AD361A4
:102AC000034B0222DA6000BFBD465DF8047B70470D
:102AD000003C02407005002080B584B000AF7860F3
:102AE00039600123FB730023BB60314B1B7E012B3C
:102AF00001D1022358E02E4B01221A764CF25030BD
:102B0000FFF7BAFE0346FB73FB7B002B48D13B6803
:102B10004FF0FF321A607B681B68012B15D17B6870
:102B20001B69DAB27B685B681946104600F044F80E
:102B30004CF25030FFF7A0FE0346FB731D4B1B69A0
:102B40001C4A23F00403136128E07B689B68BB6088
:102B50001CE07B681B69DBB21946B86800F050F8CE
:102B60004CF25030FFF788FE0346FB73114B1B6994
:102B7000104A23F0FA031361FB7B002B03D03B6860
:102B8000BA681A600AE0BB680133BB607B68DA6828
:102B90007B689B681344BA689A42DAD300F078F8ED
:102BA000034B00221A76FB7B18461037BD4680BDCA
:102BB00070050020003C024080B483B000AF0346A3
:102BC0003960FB710D4B1B690C4A23F44073136190
:102BD0000A4B1B69094A43F004031361074B1A6946
:102BE000FB791B021343054A43F48033136100BF92
:102BF0000C37BD465DF8047B704700BF003C0240C7
:102C000080B485B000AF78600B46FB700023FB609A
:102C1000FB78002B02D10023FB6010E0FB78012B36
:102C200003D14FF48073FB6009E0FB78022B03D1E2
:102C30004FF40073FB6002E04FF44073FB60134BF2
:102C40001B69124A23F440731361104B1A690F4930
:102C5000FB6813430B610D4B1B690C4A23F0F8030F
:102C600013610A4B1A697B68DB001343074A43F080
:102C700002031361054B1B69044A43F4803313615B
:102C800000BF1437BD465DF8047B7047003C02402E
:102C900080B400AF204B1B6803F40073002B17D0E7
:102CA0001D4B1B681C4A23F4007313601A4B1B68EE
:102CB000194A43F400631360174B1B68164A23F448
:102CC00000631360144B1B68134A43F400731360D2
:102CD000114B1B6803F48063002B17D00E4B1B684D
:102CE0000D4A23F4806313600B4B1B680A4A43F4BC
:102CF00080531360084B1B68074A23F4805313600A
:102D0000054B1B68044A43F48063136000BFBD4653
:102D10005DF8047B704700BF003C024080B489B07E
:102D200000AF7860396000237B6100233B610023A2
:102D3000BB610023FB616BE10122FB6902FA03F333
:102D40007B613B681B687A6913403B613A697B6928
:102D50009A4240F05A813B685B6803F00303012B01
:102D600005D03B685B6803F00303022B30D17B681E
:102D70009B68BB61FB695B00032202FA03F3DB4340
:102D8000BA691340BB613B68DA68FB695B0002FA11
:102D900003F3BA691343BB617B68BA699A607B68C5
:102DA0005B68BB610122FB6902FA03F3DB43BA698A
:102DB0001340BB613B685B681B0903F00102FB69C0
:102DC00002FA03F3BA691343BB617B68BA695A60BC
:102DD0003B685B6803F00303032B17D07B68DB6859
:102DE000BB61FB695B00032202FA03F3DB43BA69B0
:102DF0001340BB613B689A68FB695B0002FA03F30E
:102E0000BA691343BB617B68BA69DA603B685B6887
:102E100003F00303022B23D1FB69DA087B68083235
:102E200053F82230BB61FB6903F007039B000F22BC
:102E300002FA03F3DB43BA691340BB613B681A69CA
:102E4000FB6903F007039B0002FA03F3BA6913431B
:102E5000BB61FB69DA087B680832B96943F8221064
:102E60007B681B68BB61FB695B00032202FA03F30A
:102E7000DB43BA691340BB613B685B6803F0030244
:102E8000FB695B0002FA03F3BA691343BB617B6819
:102E9000BA691A603B685B6803F44033002B00F0AA
:102EA000B4800023FB60604B5B6C5F4A43F480435B
:102EB00053645D4B5B6C03F48043FB60FB685B4ACF
:102EC000FB699B08023352F82330BB61FB6903F0B6
:102ED00003039B000F2202FA03F3DB43BA6913409A
:102EE000BB617B68524A93422BD07B68514A934224
:102EF00025D07B68504A93421FD07B684F4A93424B
:102F000019D07B684E4A934213D07B684D4A934256
:102F10000DD07B684C4A934207D07B684B4A934262
:102F200001D107230EE008230CE006230AE0052365
:102F300008E0042306E0032304E0022302E0012367
:102F400000E00023FA6902F0030292009340BA699C
:102F50001343BB613549FB699B080233BA6941F8E9
:102F600023203B4B9B68BB613B69DB43BA69134041
:102F7000BB613B685B6803F48013002B03D0BA6924
:102F80003B691343BB61324ABB699360304BDB68DA
:102F9000BB613B69DB43BA691340BB613B685B685B
:102FA00003F40013002B03D0BA693B691343BB61E0
:102FB000274ABB69D360264B5B68BB613B69DB4337
:102FC000BA691340BB613B685B6803F40033002BB4
:102FD00003D0BA693B691343BB611D4ABB695360A7
:102FE0001B4B1B68BB613B69DB43BA691340BB6188
:102FF0003B685B6803F48033002B03D0BA693B69FC
:103000001343BB61124ABB691360FB690133FB6167
:10301000FB690F2B7FF690AE00BF00BF2437BD4683
:103020005DF8047B704700BF003802400038014063
:10303000000002400004024000080240000C024070
:10304000001002400014024000180240001C024020
:10305000003C014080B483B000AF78600B467B80B9
:1030600013467B707B78002B03D07A887B689A614B
:1030700003E07B881A047B689A6100BF0C37BD4669
:103080005DF8047B7047000080B586B000AF7860C3
:103090007B68002B01D1012367E27B681B6803F08A
:1030A0000103002B75D0884B9B6803F00C03042BA5
:1030B0000CD0854B9B6803F00C03082B12D1824B7C
:1030C0005B6803F48003B3F5800F0BD17E4B1B6864
:1030D00003F40033002B5BD07B685B68002B57D177
:1030E000012342E27B685B68B3F5803F06D1764BF3
:1030F0001B68754A43F4803313601DE07B685B688E
:10310000B3F5A02F0CD1704B1B686F4A43F480239A
:1031100013606D4B1B686C4A43F4803313600BE003
:10312000694B1B68684A23F480331360664B1B6845
:10313000654A23F4802313607B685B68002B13D0FF
:10314000FEF7B6FD386108E0FEF7B2FD02463B69C6
:10315000D31A642B01D9032307E25B4B1B6803F4EA
:103160000033002BF0D014E0FEF7A2FD386108E038
:10317000FEF79EFD02463B69D31A642B01D9032357
:10318000F3E1514B1B6803F40033002BF0D100E056
:1031900000BF7B681B6803F00203002B63D04A4B1F
:1031A0009B6803F00C03002B0BD0474B9B6803F08C
:1031B0000C03082B1CD1444B5B6803F48003002BE9
:1031C00016D1414B1B6803F00203002B05D07B682E
:1031D000DB68012B01D00123C7E13B4B1B6823F0C7
:1031E000F8027B681B69DB00374913430B603AE048
:1031F0007B68DB68002B20D0344B01221A60FEF77D
:1032000057FD386108E0FEF753FD02463B69D31ACB
:10321000022B01D90323A8E12B4B1B6803F0020307
:10322000002BF0D0284B1B6823F0F8027B681B6949
:10323000DB00254913430B6015E0244B00221A6084
:10324000FEF736FD386108E0FEF732FD02463B69C5
:10325000D31A022B01D9032387E11B4B1B6803F010
:103260000203002BF0D17B681B6803F00803002BDE
:1032700036D07B685B69002B16D0154B01221A6093
:10328000FEF716FD386108E0FEF712FD02463B69C5
:10329000D31A022B01D9032367E10B4B5B6F03F0B9
:1032A0000203002BF0D01BE0094B00221A60FEF74E
:1032B000FFFC38610EE0FEF7FBFC02463B69D31AC7
:1032C000022B07D9032350E1003802400000474297
:1032D000800E4742884B5B6F03F00203002BEAD15C
:1032E0007B681B6803F00403002B00F09780002329
:1032F000FB75814B1B6C03F08053002B0FD1002317
:10330000BB607D4B1B6C7C4A43F0805313647A4B4B
:103310001B6C03F08053BB60BB680123FB75774BCC
:103320001B6803F48073002B18D1744B1B68734A1D
:1033300043F480731360FEF7BBFC386108E0FEF7CE
:10334000B7FC02463B69D31A022B01D903230CE1D7
:103350006A4B1B6803F48073002BF0D07B689B687A
:10336000012B06D1644B1B6F634A43F001031367C3
:103370001CE07B689B68052B0CD15F4B1B6F5E4A82
:1033800043F0040313675C4B1B6F5B4A43F001037C
:1033900013670BE0584B1B6F574A23F00103136769
:1033A000554B1B6F544A23F0040313677B689B68DB
:1033B000002B15D0FEF77CFC38610AE0FEF778FCA4
:1033C00002463B69D31A41F28832934201D9032362
:1033D000CBE0494B1B6F03F00203002BEED014E04F
:1033E000FEF766FC38610AE0FEF762FC02463B69C4
:1033F000D31A41F28832934201D90323B5E03E4B00
:103400001B6F03F00203002BEED1FB7D012B05D1D6
:10341000394B1B6C384A23F0805313647B689B69DB
:10342000002B00F0A180344B9B6803F00C03082BA9
:103430005CD07B689B69022B41D1314B00221A6022
:10344000FEF736FC386108E0FEF732FC02463B69C5
:10345000D31A022B01D9032387E0274B1B6803F003
:103460000073002BF0D17B68DA697B681B6A1A4312
:103470007B685B6A9B011A437B689B6A5B08013B24
:103480001B041A437B68DB6A1B061B4913434B6012
:103490001B4B01221A60FEF70BFC386108E0FEF7B7
:1034A00007FC02463B69D31A022B01D903235CE0D7
:1034B000114B1B6803F00073002BF0D054E0104B4D
:1034C00000221A60FEF7F4FB386108E0FEF7F0FB1B
:1034D00002463B69D31A022B01D9032345E0064B70
:1034E0001B6803F00073002BF0D13DE07B689B6903
:1034F000012B07D1012338E0003802400070004062
:10350000600047421B4B5B68FB607B689B69012B3B
:1035100028D0FB6803F480027B68DB699A4221D1E2
:10352000FB6803F03F027B681B6A9A421AD1FA6873
:1035300047F6C07313407A68526A9201934211D1E0
:10354000FB6803F440327B689B6A5B08013B1B0409
:103550009A4207D1FB6803F070627B68DB6A1B0646
:103560009A4201D0012300E0002318461837BD46D7
:1035700080BD00BF0038024080B584B000AF7860E5
:1035800039607B68002B01D10123CCE0684B1B68BC
:1035900003F007033A689A420CD9654B3A68D2B2F5
:1035A0001A70634B1B6803F007033A689A4201D014
:1035B0000123B8E07B681B6803F00203002B20D0D6
:1035C0007B681B6803F00403002B05D0594B9B68F4
:1035D000584A43F4E05393607B681B6803F0080388
:1035E000002B05D0534B9B68524A43F460439360D1
:1035F000504B9B6823F0F0027B689B684D49134356
:103600008B607B681B6803F00103002B44D07B6850
:103610005B68012B07D1474B1B6803F40033002B79
:1036200019D101237FE07B685B68022B03D07B68A4
:103630005B68032B07D13F4B1B6803F00073002B23
:1036400009D101236FE03B4B1B6803F00203002B01
:1036500001D1012367E0374B9B6823F003027B68AD
:103660005B68344913438B60FEF722FBF8600AE085
:10367000FEF71EFB0246FB68D31A41F288329342E2
:1036800001D903234FE02B4B9B6803F00C027B68AE
:103690005B689B009A42EBD1254B1B6803F0070344
:1036A0003A689A420CD2224B3A68D2B21A70204B36
:1036B0001B6803F007033A689A4201D0012332E005
:1036C0007B681B6803F00403002B08D0194B9B6830
:1036D00023F4E0527B68DB68164913438B607B68F8
:1036E0001B6803F00803002B09D0124B9B6823F4DE
:1036F00060427B681B69DB000E4913438B6000F05E
:1037000021F802460B4B9B681B0903F00F030A4983
:10371000CB5C22FA03F3094A1360094B1B68184675
:10372000FEF782FA002318461037BD4680BD00BF61
:10373000003C02400038024004190108000000204B
:10374000040000202DE9B04F90B000AF00237B6350
:103750000023FB6300233B630023BB63594B9B683F
:1037600003F00C03082B0DD0082B00F2A180002BD6
:1037700002D0042B03D09BE0534BBB639BE0534B25
:10378000BB6398E04F4B5B6803F03F037B634D4B9B
:103790005B6803F48003002B28D04A4B5B689B09CD
:1037A00000223B627A623B6AC3F308000021474B68
:1037B00003FB01F2002300FB03F31344434AA0FB85
:1037C0000212FA620A46BA62FA6A1344FB627B6B1F
:1037D0000022BB61FA61D7E90623D7E90A01FDF7A8
:1037E00085F902460B461346FB6353E0354B5B6895
:1037F0009B0900223B617A613B69C3F3080A4FF0E1
:10380000000B52465B464FF000004FF0000159019B
:1038100041EAD261500102460B46B2EB0A0863EB63
:103820000B094FF000024FF000034FEA891343EAFF
:1038300098634FEA8812B2EB080463EB09054FF076
:1038400000024FF00003EB0043EA5473E200144619
:103850001D4614EB0A033B6045EB0B037B604FF006
:1038600000024FF00003D7E9004529468B022146AC
:1038700043EA915321468A02104619467B6B002287
:10388000BB60FA60D7E90223FDF730F902460B4628
:103890001346FB630B4B5B681B0C03F00303013304
:1038A0005B003B63FA6B3B6BB2FBF3F3BB6302E081
:1038B000054BBB6300BFBB6B18464037BD46BDE838
:1038C000B08F00BF003802400024F40040787D0132
:1038D00080B400AF034B1B681846BD465DF8047BFF
:1038E000704700BF0000002080B500AFFFF7F0FF79
:1038F0000246054B9B689B0A03F007030349CB5C18
:1039000022FA03F3184680BD00380240141901085A
:1039100080B500AFFFF7DCFF0246054B9B685B0BF1
:1039200003F007030349CB5C22FA03F3184680BD7A
:10393000003802401419010880B582B000AF7860E9
:103940007B68002B01D101237BE07B685B6A002B45
:1039500008D17B685B68B3F5827F09D07B68002261
:10396000DA6105E07B6800221A617B6800225A61F7
:103970007B6800229A627B6893F85130DBB2002B9F
:1039800006D17B68002283F850207868FDF79EFC02
:103990007B68022283F851207B681B681A687B6869
:1039A0001B6822F040021A607B685B6803F4827235
:1039B0007B689B6803F404431A437B68DB6803F469
:1039C00000631A437B681B6903F002031A437B6898
:1039D0005B6903F001031A437B689B6903F400737E
:1039E0001A437B68DB6903F038031A437B681B6A60
:1039F00003F0800342EA03017B689B6A03F40052F0
:103A00007B681B680A431A607B689B691B0C03F088
:103A100004017B685B6A03F010027B681B680A4341
:103A20005A607B681B68DA697B681B6822F4006255
:103A3000DA617B6800225A657B68012283F8512095
:103A4000002318460837BD4680BD80B588B000AF5A
:103A5000F860B9603B601346FB80FEF729F9F86116
:103A6000FB887B83FB6893F85130DBB2012B01D0DC
:103A700002232AE1BB68002B02D0FB88002B01D176
:103A8000012322E1FB6893F85030012B01D102237E
:103A90001BE1FB68012283F85020FB68032283F8B6
:103AA0005120FB6800225A65FB68BA681A63FB68FC
:103AB000FA889A86FB68FA88DA86FB6800229A639D
:103AC000FB6800229A87FB680022DA87FB680022E5
:103AD0005A64FB6800221A64FB689B68B3F5004FC8
:103AE0000FD1FB681B681A68FB681B6822F0400254
:103AF0001A60FB681B681A68FB681B6842F4804206
:103B00001A60FB681B681B6803F04003402B07D05A
:103B1000FB681B681A68FB681B6842F040021A6069
:103B2000FB68DB68B3F5006F52D1FB685B68002B64
:103B300002D07B8B012B45D1FB681B6B1A88FB687D
:103B40001B68DA60FB681B6B9A1CFB681A63FB68D6
:103B5000DB8E9BB2013B9AB2FB68DA8632E0FB68EF
:103B60001B689B6803F00203022B12D1FB681B6BDE
:103B70001A88FB681B68DA60FB681B6B9A1CFB6881
:103B80001A63FB68DB8E9BB2013B9AB2FB68DA8654
:103B900018E0FEF78DF80246FB69D31A3A689A429C
:103BA00003D83B68B3F1FF3F02D13B68002B09D13A
:103BB000FB68012283F85120FB68002283F8502023
:103BC000032382E0FB68DB8E9BB2002BC7D153E05E
:103BD000FB685B68002B02D07B8B012B47D1FB6815
:103BE0001A6BFB681B680C3312781A70FB681B6B2E
:103BF0005A1CFB681A63FB68DB8E9BB2013B9AB2CE
:103C0000FB68DA8633E0FB681B689B6803F00203FD
:103C1000022B13D1FB681A6BFB681B680C331278FC
:103C20001A70FB681B6B5A1CFB681A63FB68DB8EFF
:103C30009BB2013B9AB2FB68DA8618E0FEF738F8CF
:103C40000246FB69D31A3A689A4203D83B68B3F13B
:103C5000FF3F02D13B68002B09D1FB68012283F8AA
:103C60005120FB68002283F8502003232DE0FB68DD
:103C7000DB8E9BB2002BC6D1FA693968F86801F077
:103C8000D3F80346002B02D0FB6820225A65FB685C
:103C90009B68002B0AD100237B61FB681B68DB68F3
:103CA0007B61FB681B689B687B617B69FB68012209
:103CB00083F85120FB68002283F85020FB685B6D7D
:103CC000002B01D0012300E0002318462037BD4619
:103CD00080BD80B588B002AFF860B9603B60134624
:103CE000FB80FB6893F85130DBB2012B01D002233B
:103CF00004E1FB685B68B3F5827F12D1FB689B68C7
:103D0000002B0ED1FB68042283F85120FA883B680F
:103D100000931346BA68B968F86800F0F3F80346F0
:103D2000ECE0FDF7C5FF7861BB68002B02D0FB8893
:103D3000002B01D10123E1E0FB6893F85030012B07
:103D400001D10223DAE0FB68012283F85020FB68EE
:103D5000042283F85120FB6800225A65FB68BA6888
:103D60009A63FB68FA889A87FB68FA88DA87FB68A7
:103D700000221A63FB6800229A86FB680022DA861A
:103D8000FB6800221A64FB6800225A64FB689B6887
:103D9000B3F5004F0FD1FB681B681A68FB681B68FE
:103DA00022F040021A60FB681B681A68FB681B68F7
:103DB00022F480421A60FB681B681B6803F0400312
:103DC000402B07D0FB681B681A68FB681B6842F031
:103DD00040021A60FB68DB68002B70D135E0FB689D
:103DE0001B689B6803F00103012B15D1FB681B685E
:103DF00003F10C02FB689B6B1278D2B21A70FB685D
:103E00009B6B5A1CFB689A63FB68DB8F9BB2013B80
:103E10009AB2FB68DA8718E0FDF74AFF02467B6931
:103E2000D31A3A689A4203D83B68B3F1FF3F02D1F4
:103E30003B68002B09D1FB68012283F85120FB6805
:103E4000002283F85020032358E0FB68DB8F9BB2ED
:103E5000002BC4D138E0FB681B689B6803F00103AA
:103E6000012B13D1FB681B68DA68FB689B6B92B26D
:103E70001A80FB689B6B9A1CFB689A63FB68DB8F5C
:103E80009BB2013B9AB2FB68DA8718E0FDF710FF9E
:103E900002467B69D31A3A689A4203D83B68B3F169
:103EA000FF3F02D13B68002B09D1FB68012283F858
:103EB0005120FB68002283F8502003231EE0FB689A
:103EC000DB8F9BB2002BC6D17A693968F86800F0A5
:103ED00045FF0346002B02D0FB6820225A65FB6891
:103EE000012283F85120FB68002283F85020FB68F0
:103EF0005B6D002B01D0012300E00023184618372A
:103F0000BD4680BD80B58AB000AFF860B9607A6008
:103F10007B8001237B62FDF7CBFE3862FB6893F860
:103F20005130FB77FB685B68BB617B88FB82FB7F62
:103F3000012B0CD0BB69B3F5827F06D1FB689B686F
:103F4000002B02D1FB7F042B01D002237FE1BB6851
:103F5000002B05D07B68002B02D07B88002B01D181
:103F6000012374E1FB6893F85030012B01D1022347
:103F70006DE1FB68012283F85020FB6893F8513013
:103F8000DBB2042B03D0FB68052283F85120FB68C9
:103F900000225A65FB687A689A63FB687A88DA8738
:103FA000FB687A889A87FB68BA681A63FB687A8824
:103FB000DA86FB687A889A86FB6800221A64FB68B6
:103FC00000225A64FB681B681B6803F04003402B07
:103FD00007D0FB681B681A68FB681B6842F0400248
:103FE0001A60FB68DB68B3F5006F7ED1FB685B6825
:103FF000002B02D0FB8A012B6CD1FB681B6B1A884B
:10400000FB681B68DA60FB681B6B9A1CFB681A6311
:10401000FB68DB8E9BB2013B9AB2FB68DA8659E003
:10402000FB681B689B6803F00203022B1BD1FB6833
:10403000DB8E9BB2002B16D07B6A012B13D1FB6861
:104040001B6B1A88FB681B68DA60FB681B6B9A1C89
:10405000FB681A63FB68DB8E9BB2013B9AB2FB687C
:10406000DA8600237B62FB681B689B6803F0010310
:10407000012B19D1FB68DB8F9BB2002B14D0FB689E
:104080001B68DA68FB689B6B92B21A80FB689B6BBB
:104090009A1CFB689A63FB68DB8F9BB2013B9AB268
:1040A000FB68DA8701237B62FDF702FE02463B6A6A
:1040B000D31A3A6B9A420DD83B6BB3F1FF3F09D04C
:1040C000FB68012283F85120FB68002283F850200E
:1040D0000323BCE0FB68DB8E9BB2002BA0D1FB6806
:1040E000DB8F9BB2002B9BD182E0FB685B68002BCF
:1040F00002D0FB8A012B71D1FB681A6BFB681B682D
:104100000C3312781A70FB681B6B5A1CFB681A631D
:10411000FB68DB8E9BB2013B9AB2FB68DA865DE0FE
:10412000FB681B689B6803F00203022B1CD1FB6831
:10413000DB8E9BB2002B17D07B6A012B14D1FB685E
:104140001A6BFB681B680C3312781A70FB681B6BC8
:104150005A1CFB681A63FB68DB8E9BB2013B9AB268
:10416000FB68DA8600237B62FB681B689B6803F0B0
:104170000103012B19D1FB68DB8F9BB2002B14D0FC
:10418000FB681B68DA68FB689B6BD2B21A70FB682D
:104190009B6B5A1CFB689A63FB68DB8F9BB2013BED
:1041A0009AB2FB68DA8701237B62FDF781FD024644
:1041B0003B6AD31A3A6B9A4203D83B6BB3F1FF3F89
:1041C00002D13B6B002B09D1FB68012283F85120FF
:1041D000FB68002283F85020032338E0FB68DB8E65
:1041E0009BB2002B9CD1FB68DB8F9BB2002B97D13D
:1041F0003A6A396BF86800F017FE0346002B08D0C6
:10420000FB6820225A65FB68002283F850200123B6
:104210001DE0FB689B68002B0AD100233B61FB6813
:104220001B68DB683B61FB681B689B683B613B6903
:10423000FB68012283F85120FB68002283F850209C
:10424000FB685B6D002B01D0012300E000231846C2
:104250002837BD4680BD000080B584B000AFF8604F
:10426000B9601346FB80FB6893F85130DBB2012B39
:1042700001D0022397E0BB68002B02D0FB88002B03
:1042800001D101238FE0FB6893F85030012B01D15D
:10429000022388E0FB68012283F85020FB68032298
:1042A00083F85120FB6800225A65FB68BA681A63DC
:1042B000FB68FA889A86FB68FA88DA86FB6800222F
:1042C0009A63FB6800225A64FB6800221A64FB6848
:1042D00000229A87FB680022DA87FB689B68B3F5A7
:1042E000004F0FD1FB681B681A68FB681B6822F03F
:1042F00040021A60FB681B681A68FB681B6842F47E
:1043000080421A60FB689B6C294A1A64FB689B6CAC
:10431000284ADA63FB689B6C274ADA64FB689B6C6B
:1043200000221A65FB68986CFB681B6B1946FB68DA
:104330001B680C331A46FB68DB8E9BB2FDF7C2FE8E
:104340000346002B0BD0FB685B6D43F01002FB684B
:104350005A65FB68002283F85020012323E0FB68A4
:104360001B681B6803F04003402B07D0FB681B68E9
:104370001A68FB681B6842F040021A60FB68002262
:1043800083F85020FB681B685A68FB681B6842F082
:1043900020025A60FB681B685A68FB681B6842F081
:1043A00002025A60002318461037BD4680BD00BF88
:1043B000914B0008B1490008E54B000880B584B076
:1043C00000AFF860B9601346FB80FB6893F851308A
:1043D000DBB2012B01D00223A9E0FB689B68002B14
:1043E00010D1FB685B68B3F5827F0BD1FB680422B8
:1043F00083F85120FB88BA68B968F86800F0A2F821
:10440000034694E0BB68002B02D0FB88002B01D14F
:1044100001238CE0FB6893F85030012B01D102237B
:1044200085E0FB68012283F85020FB68042283F8B2
:104430005120FB6800225A65FB68BA689A63FB68E2
:10444000FA889A87FB68FA88DA87FB6800221A6480
:10445000FB6800225A64FB6800229A86FB680022EF
:10446000DA86FB689B68B3F5004F0FD1FB681B68C9
:104470001A68FB681B6822F040021A60FB681B6820
:104480001A68FB681B6822F480421A60FB68DB6CC8
:10449000294A1A64FB68DB6C284ADA63FB68DB6C28
:1044A000274ADA64FB68DB6C00221A65FB68D86C6B
:1044B000FB681B680C331946FB689B6B1A46FB684C
:1044C000DB8F9BB2FDF7FEFD0346002B0BD0FB6894
:1044D0005B6D43F01002FB685A65FB68002283F8AD
:1044E0005020012323E0FB681B681B6803F0400396
:1044F000402B07D0FB681B681A68FB681B6842F0FA
:1045000040021A60FB68002283F85020FB681B6899
:104510005A68FB681B6842F020025A60FB681B68FF
:104520005A68FB681B6842F001025A600023184673
:104530001037BD4680BD00BFAD4B0008594A00088A
:10454000E54B000880B586B000AFF860B9607A60CE
:104550007B80FB6893F85130FB75FB685B683B61BF
:10456000FB7D012B0CD03B69B3F5827F06D1FB6844
:104570009B68002B02D1FB7D042B01D00223CFE0EE
:10458000BB68002B05D07B68002B02D07B88002BFA
:1045900001D10123C4E0FB6893F85030012B01D115
:1045A0000223BDE0FB68012283F85020FB6893F8EA
:1045B0005130DBB2042B03D0FB68052283F8512075
:1045C000FB6800225A65FB68BA681A63FB687A8840
:1045D0009A86FB687A88DA86FB687A689A63FB6851
:1045E0007A889A87FB687A88DA87FB6800221A64DF
:1045F000FB6800225A64FB6893F85130DBB2042B4D
:1046000008D1FB68DB6C484A1A64FB68DB6C474ADC
:10461000DA6307E0FB68DB6C454A1A64FB68DB6C15
:10462000444ADA63FB68DB6C434ADA64FB68DB6CA0
:1046300000221A65FB68D86CFB681B680C331946AE
:10464000FB689B6B1A46FB68DB8F9BB2FDF73AFD5C
:104650000346002B0BD0FB685B6D43F01002FB6838
:104660005A65FB68002283F85020012358E0FB685C
:104670001B685A68FB681B6842F001025A60FB68BD
:104680009B6C00221A64FB689B6C0022DA63FB6857
:104690009B6C0022DA64FB689B6C00221A65FB6845
:1046A000986CFB681B6B1946FB681B680C331A4639
:1046B000FB68DB8E9BB2FDF705FD0346002B0BD09C
:1046C000FB685B6D43F01002FB685A65FB680022D3
:1046D00083F85020012323E0FB681B681B6803F06C
:1046E0004003402B07D0FB681B681A68FB681B68F7
:1046F00042F040021A60FB68002283F85020FB68F9
:104700001B685A68FB681B6842F020025A60FB680D
:104710001B685A68FB681B6842F002025A6000235B
:1047200018461837BD4680BDAD4B0008594A0008F1
:10473000C94B0008014B0008E54B000880B588B064
:1047400000AF78607B681B685B68FB617B681B68F7
:104750009B68BB61BB6903F04003002B0ED1BB69B2
:1047600003F00103002B09D0FB6903F04003002B89
:1047700004D07B681B6C78689847CEE0BB6903F077
:104780000203002B09D0FB6903F08003002B04D047
:104790007B685B6C78689847BFE0BB6903F02003D7
:1047A000002B0AD1BB6903F04003002B05D1BB6984
:1047B00003F48073002B00F0B080FB6903F020034A
:1047C000002B00F0AA80BB6903F04003002B23D02C
:1047D0007B6893F85130DBB2032B11D07B685B6DA3
:1047E00043F004027B685A6500237B617B681B6889
:1047F000DB687B617B681B689B687B617B690BE086
:1048000000233B617B681B68DB683B617B681B683E
:104810009B683B613B6980E0BB6903F02003002B90
:1048200014D07B685B6D43F001027B685A650023FE
:10483000FB607B681B689B68FB607B681B681A6871
:104840007B681B6822F040021A60FB68BB6903F4B6
:104850008073002B0CD07B685B6D43F008027B6893
:104860005A650023BB607B681B689B68BB60BB68A4
:104870007B685B6D002B4FD07B681B685A687B6838
:104880001B6822F0E0025A607B68012283F8512005
:10489000FB6903F00203002B04D1FB6903F0010361
:1048A000002B34D07B681B685A687B681B6822F039
:1048B00003025A607B68DB6C002B11D07B68DB6CD9
:1048C000174A1A657B68DB6C1846FDF7C3FC034684
:1048D000002B05D07B685B6D43F040027B685A6516
:1048E0007B689B6C002B16D07B689B6C0C4A1A650E
:1048F0007B689B6C1846FDF7ADFC0346002B0AD085
:104900007B685B6D43F040027B685A6503E0786822
:1049100000F044F800E000BF00BF2037BD4680BD76
:10492000254C000880B483B000AF786000BF0C371E
:10493000BD465DF8047B704780B483B000AF7860FB
:1049400000BF0C37BD465DF8047B704780B483B070
:1049500000AF786000BF0C37BD465DF8047B704740
:1049600080B483B000AF786000BF0C37BD465DF8FF
:10497000047B704780B483B000AF786000BF0C3711
:10498000BD465DF8047B704780B483B000AF7860AB
:1049900000BF0C37BD465DF8047B704780B483B020
:1049A00000AF786000BF0C37BD465DF8047B7047F0
:1049B00080B586B000AF78607B689B6B7B61FDF74C
:1049C00077F938617B681B681B6803F48073B3F563
:1049D000807F3BD07B691B685A687B691B6822F02B
:1049E00020025A607B691B685A687B691B6822F049
:1049F00002025A603A696421786900F015FA0346A8
:104A0000002B05D07B695B6D43F020027B695A6502
:104A10007B699B68002B0AD10023FB607B691B68C4
:104A2000DB68FB607B691B689B68FB60FB687B69DC
:104A30000022DA867B69012283F851207B695B6D55
:104A4000002B03D07869FFF7A9FF02E07869FFF730
:104A500069FF1837BD4680BD80B584B000AF78606F
:104A60007B689B6BFB60FDF723F9B8607B681B6874
:104A70001B6803F48073B3F5807F3BD0FB681B6831
:104A80005A68FB681B6822F020025A60FB689B682A
:104A9000002B0DD1FB685B68B3F5827F08D1FB6802
:104AA0001B685A68FB681B6822F003025A6007E023
:104AB000FB681B685A68FB681B6822F001025A6099
:104AC000BA686421F86800F049F90346002B02D067
:104AD000FB6820225A65FB680022DA87FB68012206
:104AE00083F85120FB685B6D002B03D0F868FFF75B
:104AF00055FF02E0F868FFF71FFF1037BD4680BD85
:104B000080B584B000AF78607B689B6BFB60FDF77D
:104B1000CFF8B8607B681B681B6803F48073B3F53B
:104B2000807F2FD0FB681B685A68FB681B6822F0E7
:104B300020025A60BA686421F86800F075F90346EB
:104B4000002B05D0FB685B6D43F02002FB685A65C3
:104B5000FB681B685A68FB681B6822F003025A60F6
:104B6000FB680022DA86FB680022DA87FB680122F4
:104B700083F85120FB685B6D002B03D0F868FFF7CA
:104B80000DFF02E0F868FFF7E1FE1037BD4680BD7B
:104B900080B584B000AF78607B689B6BFB60F86881
:104BA000FFF7DEFE00BF1037BD4680BD80B584B084
:104BB00000AF78607B689B6BFB60F868FFF7DAFEFC
:104BC00000BF1037BD4680BD80B584B000AF7860AF
:104BD0007B689B6BFB60F868FFF7D6FE00BF103761
:104BE000BD4680BD80B584B000AF78607B689B6BAC
:104BF000FB60FB681B685A68FB681B6822F00302B5
:104C00005A60FB685B6D43F01002FB685A65FB68F5
:104C1000012283F85120F868FFF7C0FE00BF10376B
:104C2000BD4680BD80B584B000AF78607B689B6B6B
:104C3000FB60FB680022DA87FB680022DA86F868EE
:104C4000FFF7ACFE00BF1037BD4680BD80B588B011
:104C500000AFF860B9603B601346FB71FDF728F8C0
:104C60000246BB6A9B1A3A681344FB61FDF720F8C1
:104C7000B861394B1B685B011B0DFA6902FB03F33A
:104C80007B6154E03B68B3F1FF3F50D0FDF710F873
:104C90000246BB69D31AFA699A4202D9FB69002B12
:104CA0003DD1FB681B685A68FB681B6822F0E00274
:104CB0005A60FB685B68B3F5827F11D1FB689B6823
:104CC000B3F5004F04D0FB689B68B3F5806F07D144
:104CD000FB681B681A68FB681B6822F040021A60B8
:104CE000FB689B6AB3F5005F0FD1FB681B681A680D
:104CF000FB681B6822F400521A60FB681B681A6884
:104D0000FB681B6842F400521A60FB68012283F8BA
:104D10005120FB68002283F85020032317E07B69B1
:104D2000002B01D10023FB617B69013B7B61FB68A8
:104D30001B689A68BB681340BA689A420CBF01238B
:104D40000023DBB21A46FB799A429BD10023184616
:104D50002037BD4680BD00BF0000002080B586B072
:104D600002AFF860B9607A60FB685B68B3F5827F78
:104D700011D1FB689B68B3F5004F04D0FB689B68BA
:104D8000B3F5806F07D1FB681B681A68FB681B6866
:104D900022F040021A60FB685B68B3F5827F2AD17B
:104DA000FB689B68B3F5806F12D07B680093BB688B
:104DB00000228021F868FFF749FF0346002B2DD021
:104DC000FB685B6D43F02002FB685A65032326E015
:104DD0007B680093BB6800220121F868FFF736FF6B
:104DE0000346002B1AD0FB685B6D43F02002FB6882
:104DF0005A65032313E07B680093BB6800220121FE
:104E0000F868FFF723FF0346002B07D0FB685B6DB4
:104E100043F02002FB685A65032300E00023184694
:104E20001037BD4680BD000080B588B002AFF86085
:104E3000B9607A607B680093BB6801220221F86840
:104E4000FFF704FF0346002B07D0FB685B6D43F0C0
:104E50002002FB685A65032332E01B4B1B681B4A88
:104E6000A2FB03235B0D4FF47A7202FB03F37B6119
:104E7000FB685B68B3F5827F12D17B680093BB68E7
:104E800000228021F868FFF7E1FE0346002B16D0D0
:104E9000FB685B6D43F02002FB685A6503230FE05B
:104EA0007B69002B0AD07B69013B7B61FB681B6837
:104EB0009B6803F08003802BF2D000E000BF00234A
:104EC00018461837BD4680BD00000020819F5E1641
:104ED00080B582B000AF78607B68002B01D10123E0
:104EE00041E07B6893F83D30DBB2002B06D17B6854
:104EF000002283F83C207868FCF7E4FB7B68022200
:104F000083F83D207B681A687B6804331946104695
:104F100000F0C0F97B68012283F846207B680122FB
:104F200083F83E207B68012283F83F207B680122C2
:104F300083F840207B68012283F841207B680122AE
:104F400083F842207B68012283F843207B6801229A
:104F500083F844207B68012283F845207B68012286
:104F600083F83D20002318460837BD4680BD000069
:104F700080B485B000AF78607B6893F83D30DBB2D9
:104F8000012B01D001234EE07B68022283F83D20F3
:104F90007B681B68DA687B681B6842F00102DA6094
:104FA0007B681B68234A934222D07B681B68B3F15D
:104FB000804F1DD07B681B681F4A934218D07B68C6
:104FC0001B681E4A934213D07B681B681C4A93429D
:104FD0000ED07B681B681B4A934209D07B681B6814
:104FE000194A934204D07B681B68184A934211D136
:104FF0007B681B689B6803F00703FB60FB68062B5C
:1050000010D07B681B681A687B681B6842F001023D
:105010001A6007E07B681B681A687B681B6842F0AF
:1050200001021A60002318461437BD465DF8047B60
:10503000704700BF0000014000040040000800402D
:10504000000C0040000401400040014000180040F6
:1050500080B584B000AF78607B681B68DB68FB605C
:105060007B681B681B69BB60BB6803F00203002BF5
:1050700020D0FB6803F00203002B1BD07B681B6869
:105080006FF002021A617B6801221A777B681B6845
:105090009B6903F00303002B03D0786800F0DCF871
:1050A00005E0786800F0CEF8786800F0DFF87B68FB
:1050B00000221A77BB6803F00403002B20D0FB68A2
:1050C00003F00403002B1BD07B681B686FF0040205
:1050D0001A617B6802221A777B681B689B6903F45C
:1050E0004073002B03D0786800F0B6F805E07868CC
:1050F00000F0A8F8786800F0B9F87B6800221A7709
:10510000BB6803F00803002B20D0FB6803F0080302
:10511000002B1BD07B681B686FF008021A617B684C
:1051200004221A777B681B68DB6903F00303002BFA
:1051300003D0786800F090F805E0786800F082F815
:10514000786800F093F87B6800221A77BB6803F058
:105150001003002B20D0FB6803F01003002B1BD0A2
:105160007B681B686FF010021A617B6808221A774F
:105170007B681B68DB6903F44073002B03D07868FD
:1051800000F06AF805E0786800F05CF8786800F0F4
:105190006DF87B6800221A77BB6803F00103002BCF
:1051A0000CD0FB6803F00103002B07D07B681B6861
:1051B0006FF001021A61786800F03AF8BB6803F0FA
:1051C0008003002B0CD0FB6803F08003002B07D07A
:1051D0007B681B686FF080021A61786800F010F934
:1051E000BB6803F04003002B0CD0FB6803F04003C6
:1051F000002B07D07B681B686FF040021A6178684B
:1052000000F03EF8BB6803F02003002B0CD0FB68D5
:1052100003F02003002B07D07B681B686FF020028F
:105220001A61786800F0E2F800BF1037BD4680BD13
:1052300080B483B000AF786000BF0C37BD465DF826
:10524000047B704780B483B000AF786000BF0C3738
:10525000BD465DF8047B704780B483B000AF7860D2
:1052600000BF0C37BD465DF8047B704780B483B047
:1052700000AF786000BF0C37BD465DF8047B704717
:1052800080B483B000AF786000BF0C37BD465DF8D6
:10529000047B704780B485B000AF786039607B686C
:1052A0001B68FB607B68464A934213D07B68B3F16E
:1052B000804F0FD07B68434A93420BD07B68424AB1
:1052C000934207D07B68414A934203D07B68404AAF
:1052D000934208D1FB6823F07003FB603B685B6876
:1052E000FA681343FB607B68354A93422BD07B6896
:1052F000B3F1804F27D07B68324A934223D07B683A
:10530000314A93421FD07B68304A93421BD07B685E
:105310002F4A934217D07B682E4A934213D07B6862
:105320002D4A93420FD07B682C4A93420BD07B6866
:105330002B4A934207D07B682A4A934203D07B686A
:10534000294A934208D1FB6823F44073FB603B6811
:10535000DB68FA681343FB60FB6823F080023B685C
:105360005B691343FB607B68FA681A603B689A6864
:105370007B68DA623B681A687B689A627B68104ACD
:10538000934203D07B68124A934203D13B681A6967
:105390007B681A637B6801225A617B681B6903F092
:1053A0000103012B05D17B681B6923F001027B6897
:1053B0001A6100BF1437BD465DF8047B704700BF1B
:1053C000000001400004004000080040000C0040C4
:1053D00000040140004001400044014000480140F9
:1053E00000180040001C00400020004080B483B042
:1053F00000AF786000BF0C37BD465DF8047B704796
:1054000080B483B000AF786000BF0C37BD465DF854
:10541000047B704780B582B000AF78607B68002B5A
:1054200001D1012342E07B6893F84130DBB2002BCD
:1054300006D17B68002283F840207868FCF76AF97F
:105440007B68242283F841207B681B68DA687B68CC
:105450001B6822F40052DA60786800F059FF7B681C
:105460001B681A697B681B6822F490421A617B688A
:105470001B685A697B681B6822F02A025A617B68A4
:105480001B68DA687B681B6842F40052DA607B684C
:1054900000225A647B68202283F841207B68202206
:1054A00083F842207B6800225A630023184608379D
:1054B000BD4680BD80B58AB002AFF860B9603B6080
:1054C0001346FB8000237B61FB6893F84130DBB21D
:1054D000202B75D1BB68002B02D0FB88002B01D19B
:1054E00001236EE0FB6800225A64FB68212283F8E6
:1054F0004120FCF7DDFB7861FB68FA889A84FB6841
:10550000FA88DA84FB689B68B3F5805F08D1FB6892
:105510001B69002B04D10023FB61BB68BB6103E066
:10552000BB68FB610023BB612EE03B6800937B6995
:1055300000228021F86800F031FC0346002B05D0E2
:10554000FB68202283F8412003233AE0FB69002B0B
:105550000BD1BB691B881A46FB681B68C2F30802A3
:105560005A60BB690233BB6107E0FB691A78FB68CC
:105570001B685A60FB690133FB61FB68DB8C9BB2E3
:10558000013B9AB2FB68DA84FB68DB8C9BB2002B90
:10559000CBD13B6800937B6900224021F86800F082
:1055A000FDFB0346002B05D0FB68202283F8412039
:1055B000032306E0FB68202283F84120002300E05B
:1055C000022318462037BD4680BD80B584B000AFA9
:1055D000F860B9601346FB80FB6893F84230DBB299
:1055E000202B12D1BB68002B02D0FB88002B01D1ED
:1055F00001230BE0FB6800221A63FB881A46B96896
:10560000F86800F025FC034600E002231846103736
:10561000BD4680BD80B5BAB000AF78607B681B68BE
:105620001B68C7F8E4307B681B68DB68C7F8E030AC
:105630007B681B685B69C7F8DC300023C7F8D8308B
:105640000023C7F8D430D7F8E43003F00F03C7F8CD
:10565000D830D7F8D830002B0FD1D7F8E43003F08A
:105660002003002B09D0D7F8E03003F02003002BF3
:1056700003D0786800F08DFD5BE2D7F8D830002BBE
:1056800000F0DE80D7F8DC3003F00103002B06D1F8
:10569000D7F8E03003F49073002B00F0D180D7F8F6
:1056A000E43003F00103002B0BD0D7F8E03003F413
:1056B0008073002B05D07B685B6C43F001027B6834
:1056C0005A64D7F8E43003F00403002B0BD0D7F86A
:1056D000DC3003F00103002B05D07B685B6C43F0EA
:1056E00002027B685A64D7F8E43003F00203002B0F
:1056F0000BD0D7F8DC3003F00103002B05D07B681A
:105700005B6C43F004027B685A64D7F8E43003F022
:105710000803002B11D0D7F8E03003F02003002B52
:1057200005D1D7F8DC3003F00103002B05D07B68EE
:105730005B6C43F008027B685A647B685B6C002BEF
:1057400000F0F281D7F8E43003F02003002B08D0FA
:10575000D7F8E03003F02003002B02D0786800F087
:1057600018FD7B681B685B6903F04003402B0CBF8E
:1057700001230023DBB2C7F8D4307B685B6C03F0F5
:105780000803002B03D1D7F8D430002B4FD0786812
:1057900000F020FC7B681B685B6903F04003402B32
:1057A00041D17B681B681433C7F89C30D7F89C3014
:1057B00053E8003FC7F89830D7F8983023F04003FB
:1057C000C7F8D0307B681B681433D7F8D020C7F8EF
:1057D000A820C7F8A430D7F8A410D7F8A82041E82B
:1057E0000023C7F8A030D7F8A030002BD9D17B68B0
:1057F000DB6B002B13D07B68DB6B7E4A1A657B6802
:10580000DB6B1846FCF726FD0346002B16D07B68A1
:10581000DB6B1B6D7A68D26B104698470EE0786898
:1058200000F0A8F90AE0786800F0A4F906E07868CA
:1058300000F0A0F97B6800225A6475E100BF73E1B3
:105840007B681B6B012B40F04F81D7F8E43003F0ED
:105850001003002B00F04881D7F8E03003F010036C
:10586000002B00F041810023BB607B681B681B6834
:10587000BB607B681B685B68BB60BB687B681B6840
:105880005B6903F04003402B40F0B6807B68DB6B24
:105890001B685B68A7F8BE30B7F8BE30002B00F07D
:1058A00045817B689B8DB7F8BE209A4280F03E818F
:1058B0007B68B7F8BE20DA857B68DB6BDB69B3F504
:1058C000807F00F088807B681B680C33C7F88830C5
:1058D000D7F8883053E8003FC7F88430D7F88430D1
:1058E00023F48073C7F8B8307B681B680C33D7F893
:1058F000B820C7F89420C7F89030D7F89010D7F8A0
:10590000942041E80023C7F88C30D7F88C30002B66
:10591000D9D17B681B6814337B677B6F53E8003FEA
:105920003B673B6F23F00103C7F8B4307B681B680B
:105930001433D7F8B420C7F88020FB67F96FD7F885
:10594000802041E80023BB67BB6F002BE1D17B685F
:105950001B6814333B663B6E53E8003FFB65FB6DF1
:1059600023F04003C7F8B0307B681B681433D7F8C6
:10597000B020FA66BB66B96EFA6E41E800237B661A
:105980007B6E002BE3D17B68202283F842207B686A
:1059900000221A637B681B680C33FB64FB6C53E8C2
:1059A000003FBB64BB6C23F01003C7F8AC307B68CE
:1059B0001B680C33D7F8AC20BA657B65796DBA6D7E
:1059C00041E800233B653B6D002BE3D17B68DB6B3B
:1059D0001846FCF7CFFB7B6802225A637B689A8DDE
:1059E0007B68DB8D9BB2D31A9BB21946786800F0B6
:1059F000CBF89BE09B6000087B689A8D7B68DB8D11
:105A00009BB2D31AA7F8CE307B68DB8D9BB2002BFC
:105A100000F08E80B7F8CE30002B00F089807B68D4
:105A20001B680C33BB63BB6B53E8003F7B637B6B32
:105A300023F49073C7F8C8307B681B680C33D7F821
:105A4000C8207A643B64396C7A6C41E80023FB63BC
:105A5000FB6B002BE3D17B681B6814337B627B6A92
:105A600053E8003F3B623B6A23F00103C7F8C430B0
:105A70007B681B681433D7F8C4203A63FB62F96A69
:105A80003A6B41E80023BB62BB6A002BE3D17B6821
:105A9000202283F842207B6800221A637B681B68FF
:105AA0000C333B613B6953E8003FFB60FB6823F02C
:105AB0001003C7F8C0307B681B680C33D7F8C020D0
:105AC000FA61BB61B969FA6941E800237B617B69CE
:105AD000002BE3D17B6802225A63B7F8CE30194617
